:020000040800F2
:1000000000500020153F00085933000861330008F4
:1000100069330008713300087933000800000000DC
:100020000000000000000000000000008133000814
:100030008D3300080000000099330008A533000844
:100040005D3F00085D3F00085D3F00085D3F000820
:100050005D3F00085D3F00085D3F00085D3F000810
:100060005D3F00085D3F00085D3F0008B1330008B8
:10007000C5330008293400085D3F00085D3F0008D3
:100080005D3F00085D3F00085D3F00085D3F0008E0
:100090005D3F00085D3F00085D3F00083D340008FB
:1000A0005D3F00084D3400085D3F00085D3F0008DB
:1000B0006134000875340008893400085D3F000889
:1000C0005D3F00085D3F00085D3F00085D3F0008A0
:1000D0005D3F00089D3400085D3F0008B134000812
:1000E0005D3F00085D3F00085D3F00080000000024
:1000F0000000000000000000000000000000000000
:0C01000000000000000000005FF808F1A3
:1001100010B5054C237833B9044B13B10448AFF341
:1001200000800123237010BD380200200000000071
:10013000CCCC000808B5034B1BB103490348AFF30F
:10014000008008BD000000003C020020CCCC00086C
:10015000034613F8012B002AFBD1181A0138704707
:1001600081F0004102E000BF83F0004330B54FEA68
:1001700041044FEA430594EA050F08BF90EA020FD5
:100180001FBF54EA000C55EA020C7FEA645C7FEA68
:10019000655C00F0E2804FEA5454D4EB5555B8BF8B
:1001A0006D420CDD2C4480EA020281EA030382EAFC
:1001B000000083EA010180EA020281EA0303362D8E
:1001C00088BF30BD11F0004F4FEA01314FF4801C61
:1001D0004CEA113102D0404261EB410113F0004F73
:1001E0004FEA03334CEA133302D0524263EB43032A
:1001F00094EA050F00F0A780A4F10104D5F1200EC8
:100200000DDB02FA0EFC22FA05F2801841F1000122
:1002100003FA0EF2801843FA05F359410EE0A5F1F6
:1002200020050EF1200E012A03FA0EFC28BF4CF027
:10023000020C43FA05F3C01851EBE37101F00045DD
:1002400007D54FF0000EDCF1000C7EEB00006EEBEA
:100250000101B1F5801F1BD3B1F5001F0CD3490874
:100260005FEA30004FEA3C0C04F101044FEA4452CB
:1002700012F5800F80F09A80BCF1004F08BF5FEA52
:10028000500C50F1000041EB045141EA050130BD32
:100290005FEA4C0C404141EB0101013C28BFB1F544
:1002A000801FE9D291F0000F04BF01460020B1FA8F
:1002B00081F308BF2033A3F10B03B3F120020CDA62
:1002C0000C3208DD02F1140CC2F10C0201FA0CF040
:1002D00021FA02F10CE002F11402D8BFC2F1200CA5
:1002E00001FA02F120FA0CFCDCBF41EA0C0190405B
:1002F000E41AA2BF01EB0451294330BD6FEA0404A4
:100300001F3C1CDA0C340EDC04F11404C4F120028E
:1003100020FA04F001FA02F340EA030021FA04F3A0
:1003200045EA030130BDC4F10C04C4F1200220FAF7
:1003300002F001FA04F340EA0300294630BD21FA35
:1003400004F0294630BD94F0000F83F4801306BFFB
:1003500081F480110134013D4EE77FEA645C18BFEF
:100360007FEA655C29D094EA050F08BF90EA020F86
:1003700005D054EA000C04BF1946104630BD91EA7E
:10038000030F1EBF0021002030BD5FEA545C05D181
:100390004000494128BF41F0004130BD14F58004C0
:1003A0003CBF01F5801130BD01F0004545F0FE4134
:1003B00041F470014FF0000030BD7FEA645C1ABF69
:1003C000194610467FEA655C1CBF0B46024650EAA0
:1003D000013406BF52EA033591EA030F41F40021CC
:1003E00030BD00BF90F0000F04BF0021704730B552
:1003F0004FF4806404F132044FF000054FF0000127
:1004000050E700BF90F0000F04BF0021704730B5E7
:100410004FF4806404F1320410F0004548BF4042BC
:100420004FF000013EE700BF42004FEAE2014FEA11
:1004300031014FEA02701FBF12F07F4393F07F4FEC
:1004400081F06051704732F07F4208BF704793F0EF
:100450007F4F04BF41F40021704730B54FF4607402
:1004600001F0004521F000411CE700BF50EA010205
:1004700008BF704730B54FF000050AE050EA0102AE
:1004800008BF704730B511F0004502D5404261EB1E
:1004900041014FF4806404F132045FEA915C3FF45F
:1004A000D8AE4FF003025FEADC0C18BF03325FEAFC
:1004B000DC0C18BF033202EBDC02C2F1200300FAAD
:1004C00003FC20FA02F001FA03FE40EA0E0021FAD2
:1004D00002F11444BDE600BF70B54FF0FF0C4CF4C0
:1004E000E06C1CEA11541DBF1CEA135594EA0C0F72
:1004F00095EA0C0F00F0DEF82C4481EA030621EAAD
:100500004C5123EA4C5350EA013518BF52EA0335E7
:1005100041F4801143F4801338D0A0FB02CE4FF099
:100520000005E1FB02E506F00042E0FB03E54FF0C9
:100530000006E1FB03569CF0000F18BF4EF0010EC1
:10054000A4F1FF04B6F5007F64F5407404D25FEABD
:100550004E0E6D4146EB060642EAC62141EA555170
:100560004FEAC52040EA5E504FEACE2EB4F1FD0CB2
:1005700088BFBCF5E06F1ED8BEF1004F08BF5FEA30
:10058000500E50F1000041EB045170BD06F00046E2
:1005900046EA010140EA020081EA0301B4EB5C048F
:1005A000C2BFD4EB0C0541EA045170BD41F4801187
:1005B0004FF0000E013C00F3AB8014F1360FDEBFAC
:1005C000002001F0004170BDC4F10004203C35DA88
:1005D0000C341BDC04F11404C4F1200500FA05F30B
:1005E00020FA04F001FA05F240EA020001F00042AC
:1005F00021F0004110EBD37021FA04F642EB060122
:100600005EEA430E08BF20EAD37070BDC4F10C044B
:10061000C4F1200500FA04F320FA05F001FA04F20F
:1006200040EA020001F0004110EBD37041F10001FB
:100630005EEA430E08BF20EAD37070BDC4F1200506
:1006400000FA05F24EEA020E20FA04F301FA05F26E
:1006500043EA020321FA04F001F0004121FA04F216
:1006600020EA020000EBD3705EEA430E08BF20EAE6
:10067000D37070BD94F0000F0FD101F00046400020
:1006800041EB010111F4801F08BF013CF7D041EAA2
:10069000060195F0000F18BF704703F000465200A6
:1006A00043EB030313F4801F08BF013DF7D043EA77
:1006B0000603704794EA0C0F0CEA135518BF95EA2D
:1006C0000C0F0CD050EA410618BF52EA4306D1D1B4
:1006D00081EA030101F000414FF0000070BD50EAD3
:1006E000410606BF1046194652EA430619D094EA5D
:1006F0000C0F02D150EA013613D195EA0C0F05D147
:1007000052EA03361CBF104619460AD181EA03019A
:1007100001F0004141F0FE4141F470014FF0000052
:1007200070BD41F0FE4141F4780170BD70B54FF0ED
:10073000FF0C4CF4E06C1CEA11541DBF1CEA13556D
:1007400094EA0C0F95EA0C0F00F0A7F8A4EB05044F
:1007500081EA030E52EA03354FEA013100F0888046
:100760004FEA03334FF0805545EA131343EA12630F
:100770004FEA022245EA111545EA10654FEA0026C4
:100780000EF000419D4208BF964244F1FD0404F57D
:10079000407402D25B084FEA3202B61A65EB0305D9
:1007A0005B084FEA32024FF480104FF4002CB6EB96
:1007B000020E75EB030E22BFB61A754640EA0C0016
:1007C0005B084FEA3202B6EB020E75EB030E22BF56
:1007D000B61A754640EA5C005B084FEA3202B6EB97
:1007E000020E75EB030E22BFB61A754640EA9C0056
:1007F0005B084FEA3202B6EB020E75EB030E22BF26
:10080000B61A754640EADC0055EA060E18D04FEAE3
:10081000051545EA16754FEA06164FEAC30343EA83
:1008200052734FEAC2025FEA1C1CC0D111F4801F50
:100830000BD141EA00014FF000004FF0004CB6E749
:1008400011F4801F04BF01430020B4F1FD0C88BFE8
:10085000BCF5E06F3FF6AFAEB5EB030C04BFB6EBF3
:10086000020C5FEA500C50F1000041EB045170BDE6
:100870000EF0004E4EEA113114EB5C04C2BFD4EB13
:100880000C0541EA045170BD41F480114FF0000E97
:10089000013C90E645EA060E8DE60CEA135594EA13
:1008A0000C0F08BF95EA0C0F3FF43BAF94EA0C0F16
:1008B0000AD150EA01347FF434AF95EA0C0F7FF48B
:1008C00025AF104619462CE795EA0C0F06D152EADF
:1008D00003353FF4FDAE1046194622E750EA4106C3
:1008E00018BF52EA43067FF4C5AE50EA41047FF4D4
:1008F0000DAF52EA43057FF4EBAE12E74FF0FF3C39
:1009000006E000BF4FF0010C02E000BF4FF0010C09
:100910004DF804CD4FEA410C7FEA6C5C4FEA430C82
:1009200018BF7FEA6C5C1BD001B050EA410C0CBFD1
:1009300052EA430C91EA030F02BF90EA020F002033
:10094000704710F1000F91EA030F58BF994208BF9A
:1009500090422CBFD8176FEAE37040F00100704757
:100960004FEA410C7FEA6C5C02D150EA013C07D1AE
:100970004FEA430C7FEA6C5CD6D152EA033CD3D0F9
:100980005DF8040B704700BF8446104662468C46F3
:100990001946634600E000BF01B5FFF7B7FF002826
:1009A00048BF10F1000F01BD4DF808EDFFF7F4FF4F
:1009B0000CBF012000205DF808FB00BF4DF808EDDA
:1009C000FFF7EAFF34BF012000205DF808FB00BFFD
:1009D0004DF808EDFFF7E0FF94BF012000205DF81F
:1009E00008FB00BF4DF808EDFFF7CEFF94BF0120D4
:1009F00000205DF808FB00BF4DF808EDFFF7C4FFCD
:100A000034BF012000205DF808FB00BF4FEA410C15
:100A10007FEA6C5C02D150EA013C0AD14FEA430CF8
:100A20007FEA6C5C02D152EA033C02D14FF0000035
:100A300070474FF0010070474FEA410212F5001273
:100A400015D211D56FF47873B3EB625212D94FEA15
:100A5000C12343F0004343EA505311F0004F23FAFF
:100A600002F018BF404270474FF00000704750EA54
:100A7000013005D111F0004008BF6FF00040704711
:100A80004FF00000704700BF4A0011D212F500126B
:100A900011D20DD56FF47873B3EB62520ED44FEAD6
:100AA000C12343F0004343EA505323FA02F0704756
:100AB0004FF00000704750EA013002D14FF0FF3094
:100AC00070474FF0000070474FEA4102B2F1E04337
:100AD00024BFB3F5001CDCF1FE5C0DD901F0004C25
:100AE0004FEAC0024CEA5070B2F1004F40EB830075
:100AF00008BF20F00100704711F0804F21D113F1A1
:100B00003872BCBF01F00040704741F480114FEAD9
:100B10005252C2F11802C2F1200C10FA0CF320FA62
:100B200002F018BF40F001004FEAC1234FEAD3237F
:100B300003FA0CFC40EA0C0023FA02F34FEA4303E9
:100B4000CCE77FEA625307D150EA01331EBF4FF072
:100B5000FE4040F44000704701F0004040F0FE408D
:100B600040F40000704700BF80F0004002E000BF8A
:100B700081F0004142001FBF5FEA410392EA030F88
:100B80007FEA226C7FEA236C6AD04FEA1262D2EBD2
:100B90001363C1BFD218414048404140B8BF5B42D7
:100BA000192B88BF704710F0004F40F4000020F070
:100BB0007F4018BF404211F0004F41F4000121F086
:100BC0007F4118BF494292EA030F3FD0A2F10102D0
:100BD00041FA03FC10EB0C00C3F1200301FA03F10E
:100BE00000F0004302D5494260EB4000B0F5000F31
:100BF00013D3B0F1807F06D340084FEA310102F1F0
:100C00000102FE2A51D2B1F1004F40EBC25008BFA1
:100C100020F0010040EA03007047490040EB00006B
:100C2000013A28BFB0F5000FEDD2B0FA80FCACF16C
:100C3000080CB2EB0C0200FA0CF0AABF00EBC25099
:100C400052421843BCBFD0401843704792F0000F87
:100C500081F4000106BF80F400000132013BB5E7DA
:100C60004FEA41037FEA226C18BF7FEA236C21D050
:100C700092EA030F04D092F0000F08BF08467047B5
:100C800090EA010F1CBF0020704712F07F4F04D183
:100C9000400028BF40F00040704712F100723CBF96
:100CA00000F50000704700F0004343F0FE4040F4C0
:100CB000000070477FEA226216BF08467FEA23637E
:100CC0000146420206BF5FEA412390EA010F40F469
:100CD000800070474FF0000304E000BF10F00043B5
:100CE00048BF40425FEA000C08BF704743F096439C
:100CF00001464FF000001CE050EA010208BF7047B7
:100D00004FF000030AE000BF50EA010208BF70473D
:100D100011F0004302D5404261EB41015FEA010C52
:100D200002BF84460146002043F0B64308BFA3F14A
:100D30008053A3F50003BCFA8CF2083AA3EBC2532C
:100D400010DB01FA02FC634400FA02FCC2F120024B
:100D5000BCF1004F20FA02F243EB020008BF20F082
:100D60000100704702F1200201FA02FCC2F12002E8
:100D700050EA4C0021FA02F243EB020008BF20EADD
:100D8000DC7070474FF0FF0C1CEAD0521EBF1CEA0B
:100D9000D15392EA0C0F93EA0C0F6FD01A4480EAF9
:100DA000010C400218BF5FEA41211ED04FF00063E2
:100DB00043EA501043EA5111A0FB01310CF000400E
:100DC000B1F5000F3EBF490041EAD3715B0040EA34
:100DD000010062F17F02FD2A1DD8B3F1004F40EB04
:100DE000C25008BF20F00100704790F0000F0CF0D7
:100DF000004C08BF49024CEA502040EA51207F3A9B
:100E0000C2BFD2F1FF0340EAC250704740F4000075
:100E10004FF00003013A5DDC12F1190FDCBF00F066
:100E200000407047C2F10002410021FA02F1C2F114
:100E3000200200FA02FC5FEA310040F1000053EAB0
:100E40004C0308BF20EADC70704792F0000F00F0FE
:100E5000004C02BF400010F4000F013AF9D040EA04
:100E60000C0093F0000F01F0004C02BF490011F498
:100E7000000F013BF9D041EA0C018FE70CEAD15396
:100E800092EA0C0F18BF93EA0C0F0AD030F0004C16
:100E900018BF31F0004CD8D180EA010000F00040CA
:100EA000704790F0000F17BF90F0004F084691F088
:100EB000000F91F0004F14D092EA0C0F01D14202C2
:100EC0000FD193EA0C0F03D14B0218BF084608D18B
:100ED00080EA010000F0004040F0FE4040F40000D5
:100EE000704740F0FE4040F4400070474FF0FF0C68
:100EF0001CEAD0521EBF1CEAD15392EA0C0F93EAAF
:100F00000C0F69D0A2EB030280EA010C49024FEA00
:100F1000402037D04FF0805343EA111143EA1013B9
:100F20000CF000408B4238BF5B0042F17D024FF471
:100F3000000C8B4224BF5B1A40EA0C00B3EB510F4C
:100F400024BFA3EB510340EA5C00B3EB910F24BF35
:100F5000A3EB910340EA9C00B3EBD10F24BFA3EBBA
:100F6000D10340EADC001B0118BF5FEA1C1CE0D182
:100F7000FD2A3FF650AF8B4240EBC25008BF20F035
:100F8000010070470CF0004C4CEA50207F32C2BF89
:100F9000D2F1FF0340EAC250704740F400004FF026
:100FA0000003013A37E792F0000F00F0004C02BF57
:100FB000400010F4000F013AF9D040EA0C0093F021
:100FC000000F01F0004C02BF490011F4000F013B7B
:100FD000F9D041EA0C0195E70CEAD15392EA0C0FE3
:100FE00008D142027FF47DAF93EA0C0F7FF470AF1B
:100FF000084676E793EA0C0F04D14B023FF44CAF5E
:1010000008466EE730F0004C18BF31F0004CCAD1F2
:1010100030F000427FF45CAF31F000437FF43CAF2E
:101020005FE700BF42000ED2B2F1FE4F0BD34FF08C
:101030009E03B3EB126209D44FEA002343F000434E
:1010400023FA02F070474FF00000704712F1610F71
:1010500001D1420202D14FF0FF3070474FF0000043
:10106000704700BF38B50022002304460D46FFF745
:10107000A5FC28B920462946BDE8384000F00AB84A
:10108000204605F1004100F005F8404261EB4101C6
:1010900038BD00BFD0B500220B4B06460F46FFF708
:1010A0001BFAFFF7F1FC0446FFF79CF90022074BFF
:1010B000FFF712FA02460B4630463946FFF754F85E
:1010C000FFF7E2FC2146D0BD0000F03D0000F041FA
:1010D00080B483B000AF0023FB8002E0FB880133C3
:1010E000FB80FB88002BF9D000BF00BF0C37BD464A
:1010F00080BC704780B582B000AF03460A46FB71E2
:101100001346BB71FB79074A52F82300FB79064A64
:1011100032F81330BA79194604F0E3FA00BF083701
:10112000BD4680BD0C0000200000002080B582B0CC
:1011300000AF03460A46FB711346BB71FB79074AB1
:1011400052F82300FB79064A32F81330BA7919466F
:1011500004F0C7FA00BF0837BD4680BD1C00002060
:101160000800002080B582B000AF03460A46FB713C
:101170001346BB71FB79074A52F82300FB79064AF4
:1011800032F81330BA79194604F0ABFA00BF0837C9
:10119000BD4680BD140000200400002080B584B04E
:1011A00000AF03463960FB710023FB73FB7901211B
:1011B0001846FFF7BBFFFB7901211846FFF79AFF9E
:1011C000FB7900211846FFF795FF0023FB7323E00E
:1011D0003B6803F40043002B05D0FB79012118463E
:1011E000FFF7C0FF04E0FB7900211846FFF7BAFFC4
:1011F000FFF76EFFFB7900211846FFF797FFFFF717
:1012000067FFFB7901211846FFF790FF3B685B0001
:101210003B60FB7B0133FB73FB7B0F2BD8D9FB7946
:1012200001211846FFF766FF00BF1037BD4680BD9D
:1012300080B584B000AF0346FB710B46BB801346FC
:101240007B80BB88FB81FA897B881343FB81FA8909
:10125000FB7911461846FFF7A1FF00BF1037BD46C6
:1012600080BD80B586B000AFB9607A603B60034650
:10127000FB7300237B617A69BB681A437B68134365
:101280003A6813437B61FB7B79691846FFF786FF59
:1012900000BF1837BD4680BD80B58CB000AFC7E930
:1012A00000230346FB730B46BB8127A3D3E900232E
:1012B000C7E90A23D7E90023C7E9082324A3D3E910
:1012C0000023D7E90801FFF731FA02460B46C7E9C8
:1012D0000823D7E90A23D7E90801FFF7FDF80246FA
:1012E0000B46C7E90823D7E90801FFF7A5FB03462A
:1012F000FB61FB69BB61BB69C3F30D03BB61FB69A8
:101300009B137B617B69C3F30D037B61BB89BA6966
:101310001343BB61BB897A6913437B61FB7B4FF449
:1013200004511846FFF73AFFBA69FB7B114618468D
:10133000FFF734FF7A69FB7B11461846FFF72EFF53
:1013400000BF3037BD4680BDCE98ED780826774186
:101350000000000080842E4180B582B000AF0346BB
:10136000FB71FB7901211846FFF7C4FEFB790121CF
:101370001846FFF7DBFEFB7901211846FFF7F2FE66
:1013800000BF0837BD4680BD80B586B000AFB960EC
:10139000C7E900230346FB73FB7B4FF480711846BB
:1013A000FFF7FCFEFB7B4FF404511846FFF7F6FEF7
:1013B000BB6899B2F87BD7E90023FFF76DFF3B6A62
:1013C00099B27B6A9AB2FB7B1846FFF731FFBB6884
:1013D000B3F5804F02D100237B6102E04FF400633C
:1013E0007B613B6AB3F5404F02D100233B6102E0D1
:1013F0004FF480633B61F87B3B697A69B96AFFF718
:1014000030FF00BF1837BD4680BD000080B584B0F6
:1014100000AF3B1D00221A605A609A60184B194AAF
:101420001A60174B00229A60154B01221A73144B55
:1014300000221A75124B4FF46022DA61104B002221
:101440005A600F4B01221A610D4802F02DFE03462F
:10145000002B01D001F00CFF09237B600123BB604E
:101460000223FB603B1D1946054802F0EFFF0346CF
:10147000002B01D001F0FCFE00BF1037BD4680BD3F
:10148000980200200024014080B588B000AF786049
:1014900007F1100300221A605A609A60DA607B68D4
:1014A0001B68294A93424AD1284B9B69274A43F437
:1014B00000739361254B9B6903F40073FB60FB6829
:1014C000224B9B69214A43F0080393611F4B9B69A0
:1014D00003F00803BB60BB6802233B6103237B610D
:1014E00007F1100319461A4803F060FF194B1A4A16
:1014F0001A60184B00225A60164B00229A60154B56
:101500008022DA60134B4FF480721A61114B4FF452
:1015100080625A610F4B20229A610E4B4FF4405269
:10152000DA610C4803F048FB0346002B01D001F0C0
:101530009FFE7B68074A1A62064A7B68536200BFB7
:101540002037BD4680BD00BF00240140001002408E
:10155000000C0140C80200200800024080B500AF26
:10156000044803F06DF901220349024802F074FEB9
:1015700000BF80BD980200205402002090B583B0C7
:1015800000AF4FF000037B6000233B603D4B1B68C6
:1015900003F00203012B07D13A4B02225A600122C9
:1015A00039493A4802F058FE374B1B881846FFF776
:1015B00091FB034636491846FFF7E4FB03463549DD
:1015C0001846FFF793FC03467B6033497868FFF7C2
:1015D0008DFC03467B60314B1B78002B1BD1304BBD
:1015E00000221A700FE02E4B1B781C467868FFF71C
:1015F00019FD03462B4A42F82430294B1B7801334E
:10160000DAB2274B1A70264B1B780E2BEBD9234BE3
:1016100001221A7016E0224B1B781C467868FFF7EF
:1016200001FD03461F4A42F824301D4B1B7801334D
:10163000DAB21B4B1A701A4B1B780E2B02D9184BBF
:1016400000221A700F21174800F034F803461A469A
:10165000154B1A8002F0DCFC3860144B1B683A68AA
:10166000D31AB3F5FA7F08D9104A3B6813600E4BC2
:101670001B8819460E4807F0E7FE00BF0C37BD4631
:1016800090BD00BF000002405402002098020020DC
:1016900000404E4500F07F4560E5203F9402002069
:1016A0000C0300205802002024000020100300201A
:1016B000E8CC000880B487B000AF78600B46FB70C0
:1016C0000023FB6000237B610023BB600023FB74CD
:1016D0000023BB740023FB7434E00023BB7427E0B9
:1016E000BB7C9B007A6813441A68BB7C01339B0067
:1016F00079680B441B689A4217D9BB7C9B007A68B7
:1017000013441B68BB60BB7C01339B007A681A449E
:10171000BB7C9B0079680B4412681A60BB7C013368
:101720009B007A681344BA681A60BB7C0133BB74AF
:10173000BA7CF978FB7CCB1A013B9A42D0DBFB7C6C
:101740000133FB74FA7CFB78013B9A42C5DB002332
:10175000FB740BE0FB7C01339B007A6813441B682D
:101760007A6913447B61FB7C0133FB74FA7CFB7860
:10177000023B9A42EEDBFB78023B1A467B69B3FBE5
:10178000F2F39BB2FB60FB689BB218461C37BD4668
:1017900080BC704780B400AF514B1A78504B5B78D7
:1017A0009A4240F099804E4B5A784D4B9B789A4222
:1017B00040F092804A4B9A78494BDB789A4240F04D
:1017C0008B80474B1B78802B03D0454B1B78842B99
:1017D00003D1444BAA221A702AE0414B1B7803F034
:1017E0000203002B17D13E4B1B785BB2002B12DAA1
:1017F0003B4B1B7823F00F03DAB23A4B1A70384B8D
:101800001B78972B13D8384B1B78042B0FD0374BF2
:1018100001221A700BE0324B1B78FF2B08D0304BA3
:101820001B7803F07003DAB22E4B1A7000E000BF91
:101830002C4B1B78B02B46D0B02B48DCAA2B32D0D7
:10184000AA2B44DCA02B3AD0A02B40DC902B32D02A
:10185000902B3CDC802B2AD0802B38DC702B1ED0C8
:10186000702B34DC302B16D0302B30DC202B0ED0FC
:10187000202B2CDC002B02D0102B04D027E01C4B9B
:1018800001221A7024E01A4B02221A7020E0184B31
:1018900003221A701CE0164B04221A7018E0144B35
:1018A00005221A7014E0124B06221A7010E0104B39
:1018B00007221A700CE00E4B08221A7008E00C4B3D
:1018C00009221A7004E00A4B0A221A7000E000BFD5
:1018D000074B1A78074B1A7000BFBD4680BC704793
:1018E000C80700203A0000201603002055030020FE
:1018F000260000202700002080B500AF464B1B7853
:10190000052B3BD8454B1B78132B02D9434B0022A8
:101910001A70424B1B78002B26D1414B1B78052BAC
:101920001AD83F4B1A783C4B1B789A4214D33D4B44
:1019300012229A703A4B1A783A4B9A710E21394812
:1019400001F028FE364B1B780133DAB2344B1A70A3
:10195000354B02221A7007E02F4B1A78304B1A7061
:101960002D4B1A78314B1A70314B00221A702B4BC9
:101970001B780133DAB2294B1A704BE02C4B1B78E1
:10198000092B02D92A4B00221A70294B1B78002BF5
:1019900037D1244B12229A70264B1B78012B1BD176
:1019A0001D4B1A78214B1B789A420AD91F4B1B7882
:1019B000052B06D91D4B1B78053BDAB2194B9A71E2
:1019C00010E0154B1A78194B1A70184B1B78053B11
:1019D000DAB2144B9A7105E00F4B1B78053BDAB273
:1019E000104B9A71144B1B78012B06D1134B1B78AB
:1019F000042B02D00B4B06229A710E21094801F0EC
:101A0000C9FD0B4B1B780133DAB2094B1A70034B3B
:101A100001221A7000BF80BD27000020140300209F
:101A20003B0000202C0000203C0300202800002068
:101A300015030020E80700205503002016030020AE
:101A400080B586B004AFC82002F0ECFA01F016FCB5
:101A50000020FFF781FC0120FFF77EFC0222A44951
:101A6000A44800F0DBFF0122A349A44800F0D6FF00
:101A70000122A349A34800F0D1FF0122A249A348B3
:101A800000F0CCFF0122A249A24800F0C7FF984B0A
:101A90001B884FF6FF72934203D19F4B65221A7049
:101AA00004E0934B1B88DAB29B4B1A70904B5B8817
:101AB0004FF6FF72934204D1984B41F288321A805C
:101AC00003E08B4B5A88954B1A80944B1B88184621
:101AD00000F01CFE8C4B1B884FF6FF72934202D124
:101AE000894B00221A808A4B1B88012B03D18C4B17
:101AF00005221A7008E0864B1B884FF6FF7293424E
:101B000002D1834B00221A8003228649864800F0C6
:101B100085FF844B1B884DF6DD52934273D1814B78
:101B20005B884EF6EE6293426DD17E4B9B884FF6FA
:101B3000FF72934267D103227C497D4800F06EFF1B
:101B40007A4B1B88DAB27B4B1A70784B5B88DAB21F
:101B5000794B1A70754B9B88DAB2784B1A70754BBB
:101B60001B7803F227234FF4FA6202FB03F31A46B1
:101B7000734B1A60724B1B681846FEF733FC024623
:101B80000B46022102914FF4006101914FF4604134
:101B900000914FF480410020FFF7F6FB664B1B7865
:101BA00003F227234FF4FA6202FB03F31A46644B55
:101BB0001A60634B1B681846FEF714FC02460B467E
:101BC000022102914FF4006101914FF460410091B4
:101BD0004FF480410120FFF7D7FB584B1B781A4682
:101BE000D82302FB03F31A46564B1A60514B1A785E
:101BF000554B1A70504B1A78544B1A704F4B1A7839
:101C0000534B1A7069E0474B1B884FF6FF729342A3
:101C100063D1444B5B884FF6FF7293425DD1414BD9
:101C20009B884FF6FF72934257D14A23BB710A2318
:101C3000FB71642002F0F6F9BB7903F227234FF41D
:101C4000FA6202FB03F31A463D4B1A603C4B1B68D9
:101C5000404A934206D1B91D4FF0FF3301223E485E
:101C600005F0BEFB364B1B681846FEF7BBFB024671
:101C70000B46022102914FF4006101914FF4604143
:101C800000914FF480410020FFF77EFB2C4B1B6836
:101C90001846FEF7A7FB02460B46022102914FF4BD
:101CA000006101914FF4604100914FF480410120A7
:101CB000FFF76AFB642002F0B5F9FB79D82202FB3A
:101CC00003F31A461F4B1A60BA791F4B1A70BA7980
:101CD0001E4B1A701E4AFB791370204B00221A60AB
:101CE0001F4B00221A6000BF0837BD4680BD00BFF1
:101CF0006803002000EC00085503002000F40008F1
:101D00005C03002000F800084A030020000C0108D2
:101D100064030020000001084A0000204C0000205D
:101D2000160300201803002000F000082003002004
:101D300000FC00082E0300202F03002030030020A9
:101D40003403002038030020310300203203002038
:101D500033030020F0601300B80A00207C09002043
:101D60008009002080B584B004AFA04B1B78DBB2A3
:101D7000002B00F03B829D4B00221A709C4B1B787D
:101D8000EE2B40F09C819A4B5B78B52B40F097810D
:101D9000974B9B78212B40F09281954B1B7BFF2B1F
:101DA00040F08D81924B5B7BFC2B40F08881904B07
:101DB0009B7BFF2B40F083818D4BDB7BFF2B40F027
:101DC0007E818B4BDB78002B17D1894B1B79002B45
:101DD00013D1874B5B79022B0FD1854B9B79012B5C
:101DE0000BD1844B04221A700821834804F0E4FBD1
:101DF0000621824801F0CEFB61E17D4BDB78002BB0
:101E000013D17B4B1B79002B0FD1794B5B79042BC2
:101E10000BD1774B9B79002B07D1764B02221A709E
:101E20000821754804F06AFC49E1714BDB78BC2B52
:101E300040F006816E4B9B79102B08D1704B01222C
:101E40001A7001226E496F4800F02EFD37E1684B91
:101E50009B79012B40F03381694B1B78012B00F0FB
:101E60002E81644B03221A70674B4DF6DD521A80A7
:101E7000654B4EF6EE625A80634B4FF6FF729A80C6
:101E800003226149614800F00FFD594B1B791A4646
:101E90005F4B1A80564BDB791A465D4B5A80544B88
:101EA0005B791A465A4B9A8003225949594800F0E7
:101EB000FBFC03225849574800F0B0FD544B1A88E8
:101EC000554B1B889A4240F0FA80514B5A88524B2E
:101ED0005B889A4240F0F3804D4B9A884E4B9B882A
:101EE0009A4240F0EC8001F0C9F94B4B1B88DAB202
:101EF0004A4B1A70484B5B88DAB2494B1A70464B12
:101F00009B88DAB2474B1A70444B1B7803F22723A5
:101F10004FF4FA6202FB03F31A46434B1A60424B3A
:101F20001B681846FEF75EFA02460B460221029134
:101F30004FF4006101914FF4604100914FF48041F2
:101F40000020FFF721FA364B1B7803F227234FF4CA
:101F5000FA6202FB03F31A46334B1A60324B1B68DA
:101F60001846FEF73FFA02460B46022102914FF453
:101F7000006101914FF4604100914FF480410120D4
:101F8000FFF702FA274B1B781A46D82302FB03F30C
:101F90001A46264B1A60264B21229A701F4B1A783C
:101FA000234B1A711F4B1A78214B5A711C4B1A780C
:101FB0001F4B9A71194B1A781E4B1A70184B1A78CE
:101FC0001D4B1A70174B1A781C4B1A700E211848AB
:101FD00001F0E0FA022002F025F80E21144801F089
:101FE000D9FA0821044804F089FB68E06D08002054
:101FF000EC07002016030020700A00205400002087
:102000005C03002000F800081803002000F000081E
:102010002803002000FC0008200300202E030020DD
:102020002F03002030030020340300203803002059
:102030003C00002031030020320300203303002045
:102040006C4BDB78BD2B3AD16A4B1B79F92B36D11F
:10205000684B5A79684B1A70664B9B791B021AB20F
:10206000644BDB791BB213431BB29AB2634B1A80E9
:10207000614B1B78642B02D15F4B65221A70604B59
:102080001B88DAB25C4B1B789A4205D15C4B5A88AC
:102090005A4B1B889A4212D0574B1B781A46584B02
:1020A0001A80564B1A88564B5A80544B1B88184638
:1020B00000F02CFB02225249524800F0F5FB4D4B38
:1020C0001B78EE2B66D14B4B5B78B52B62D1494B1D
:1020D0009B78112B5ED1474B1B7BFF2B5AD1454B75
:1020E0005B7BFC2B56D1434B9B7BFF2B52D1414B4F
:1020F000DB7BFF2B4ED13F4BDB78002B30D13D4BB0
:102100001B79002B2CD13B4B5B79002B28D1394B11
:102110009B790B2B24D13C4B00221A603B4B0322B2
:102120001A703B4B13229A703A4B1A78384B1A713B
:10213000394B1A78364B5A71384B1A78344B9A719E
:102140000E21334801F026FA022001F06BFF0E2128
:102150002F4801F01FFA0821314804F0CFFA19E0A6
:10216000244BDB78002B15D1224B1B790A2B11D184
:10217000204B5B79002B0DD11E4B9B79062B09D18F
:10218000214B00221A60214B02221A700821244898
:1021900004F0B4FA174B1B78EE2B27D1154B5B7864
:1021A000F72B23D1134B5B7AFF2B1FD1114B9B7A5B
:1021B000FC2B1BD10F4BDB7AFF2B17D10D4B1B7B5D
:1021C000FF2B13D10B4B9A78164B1A70094BDA7808
:1021D000144B5A70074B5A79124B9A70054B9A79E7
:1021E000104BDA70034BDA790E4B1A7100BFBD4603
:1021F00080BD00BFEC0700204A0000204C000020FA
:102200006803002000EC00087C0900201603002071
:102210003C00002031030020330300203203002063
:10222000700A00205003002080B582B000AF002368
:102230007B609E4B1B78012B54D19C4B00221A7063
:102240009B4B1B78052B20D801F0E2FE7860994B60
:102250001B687A68D31AB3F57A7F05D9954A7B68EB
:102260001360954B01221A70934B1B78012B19D1E7
:10227000924B1B88002B15D1904B01221A80012212
:102280008E498F4800F010FB0CE08B4B1B78012B24
:1022900002D18C4B05221A7001F0BAFE7860854A93
:1022A0007B681360884B1B785BB2002B1ADA874B74
:1022B0001B88B3F5486F06D8824B05221A70844BF1
:1022C00001221A700EE07F4B1B78042B0AD07D4B45
:1022D0001B78032B06D07B4B1B78052B02D0794B48
:1022E00002221A70774B1B78013B042B00F22B81E2
:1022F00001A252F823F000BF0D2300082723000895
:10230000952300080324000801250008714B0022D2
:102310001A60714B1B78012B02D1704B01221A708D
:1023200000F0ACFF14E16C4B1B78012B02D16B4B1E
:1023300001221A7000228021694803F0D2F900229C
:102340000821684803F0CDF900220121664803F016
:10235000C8F900224FF40041624803F0C2F9634B10
:102360001B6800229A63624B1B6800221A64594B57
:102370001B6841F29312934240F2E780554B0022D2
:102380001A604B4B1B78052B40F2DF804D4B05222A
:102390001A70DAE0504B1B78012B02D14F4B01220F
:1023A0001A70002280214E4803F09BF90022082178
:1023B0004C4803F096F9002201214B4803F091F9B3
:1023C00000224FF40041474803F08BF9474B1B684C
:1023D00000229A63464B1B6800221A643D4B1B681F
:1023E0004EF65F22934240F2B2803A4B00221A60CE
:1023F0002F4B1B78052B40F2AA80324B05221A7016
:10240000A5E0354B01221A70324B00221A600122DE
:102410008021334803F065F901224FF4805131489F
:1024200003F05FF9012208212E4803F05AF9012236
:1024300001212D4803F055F901224FF400412948AC
:1024400003F04FF92B4B1B781A46642302FB03F36E
:102450001A46294B1B689A4209D9244B1B68274A04
:1024600012689A63214B1B6800225A6370E0214B6B
:102470001B781A46642302FB03F31A461E4B1B68A3
:102480009A420ED81C4B1B6842F20F72934208D836
:10249000164B1B6800229A63144B1B6800225A6378
:1024A00056E0154B00221A6052E000BFC60700201C
:1024B000260000206C03002070030020640300202D
:1024C0000000010816030020C70700202400002098
:1024D0003C0300207C090020480300204903002021
:1024E000000C01400008014000100140280A0020B3
:1024F000700A00204A000020E00700203803002076
:10250000154B1B78012B02D1144B01221A70144B6E
:102510001B68822B0BD9134B1B88012B07D1114B46
:1025200000221A8001220F490F4800F0BDF9012254
:1025300040210E4803F0D5F801224FF480710C4879
:1025400003F0CFF804E000BF02E000BF00E000BFEE
:1025500000BF0837BD4680BD480300204903002066
:102560006003002064030020000001080010014007
:102570000008014080B582B000AF00237B600023DB
:102580003B60364B1B78012B64D1354B1B78012BFC
:1025900060D1344B1B8801339AB2324B1A80324BD4
:1025A0001B78192B07D1314B1B7843F01003DAB29B
:1025B0002F4B1A7006E02D4B1B7843F02003DAB244
:1025C0002B4B1A702B4B1B682B4AA2FB03235B0976
:1025D0007B607B681B0ADAB2254B5A707B68DAB2E3
:1025E000234B9A70254B1A78214BDA70234B5A787B
:1025F0001F4B1A71214B9A781D4B5A711F4BDA7879
:102600001B4B9A711D4B1A79194BDA71154B1B88AC
:102610001B4AA2FB0312920A40F6D86101FB02F2A8
:102620009B1A9BB21A46174B1344DB003B600122F6
:102630000C49154800F038F904220D49386800F0BB
:1026400033F90C4B00221A60044B00221A70044B21
:1026500000221A7000BF0837BD4680BD4803002025
:10266000490300204A0300204A0000203C030020C8
:10267000400300204C0300201F85EB515003002035
:10268000353AFC4481210001000C010880B500AFFF
:10269000184B1B78012B13D1174B1B78072B03D03A
:1026A000154B1B78062B0BD1144B1B78012B07D035
:1026B000124B01221A7001221049114800F0F4F85F
:1026C0000D4B1B78082B02D90C4B00221A700D4BB6
:1026D0001B680D4A93420AD90A4B00221A60074B25
:1026E00000221A7001220549054800F0DDF800BFFC
:1026F00080BD00BFE8070020260000205503002011
:1027000000F4000858030020C0D4010080B586B052
:1027100000AF78600023FB6000237B6100233B61F6
:1027200042F210727B68B2FBF3F3FB60FB6842F28B
:10273000107293424CD8FB68012B49D9FB68132BCC
:102740000DD9FB6842F21072934208D840F2CF23B1
:102750007B61224AFB68B2FBF3F33B610DE0FB684F
:10276000012B37D9FB68132B34D841F61F437B610B
:102770001B4AFB68B2FBF3F33B610821194803F0E5
:10278000BDFF184803F048FE164B1B687A699A6231
:10279000144B1B683A69DA62124A3B69D360124AE9
:1027A0003B6913600F4B1B6800221A640F4B1B78A8
:1027B0001A460D4B1B6803FB02F20A4B1B680C49BF
:1027C000A1FB02125209DA63064803F0DBFD02E0C6
:1027D00000BF00E000BF1837BD4680BD40420F007B
:1027E000A0860100700A0020500000204A0000204E
:1027F0001F85EB5180B582B000AF104B5B690F4A6B
:1028000043F0010353610D4B5B6903F001037B60EF
:102810007B68002200210C2002F097F90C2002F0C6
:10282000B0F9012200210D2002F08FF90D2002F0F5
:10283000A8F900BF0837BD4680BD00BF00100240A8
:1028400080B483B000AF78607B681B889BB2184669
:102850000C37BD4680BC7047B0B586B000AFF8609D
:10286000B9601346FB800023FB8214E0FB8A5B0007
:10287000BA6813441B889BB200221C4615462246A8
:102880002B46F968012002F039FCFB680233FB603B
:10289000FB8A0133FB82FA8AFB889A42E6D300BFA7
:1028A00000BF1837BD46B0BD80B588B000AFF86036
:1028B000B9601346FB80FB68B3F1006FC0F0A380E2
:1028C000FB68534A934200F29E8002F087FCFB684B
:1028D00003F178433B613B699B0AFB613B69C3F3AE
:1028E00009035B087B837B8BC3F500733B83FA880A
:1028F0003B8B9A4201D8FB883B83FB6903F500338D
:102900009B024FF400724349184600F087F80023F9
:10291000FB820CE07A8BFB8A13443E4A32F8133078
:102920004FF6FF72934207D1FB8A0133FB82FA8A8A
:102930003B8B9A42EED300E000BFFA8A3B8B9A426F
:1029400030D2FB6903F500339B02184600F088F88B
:102950004CF2503002F094FC2F4B1B692E4A23F0AE
:10296000020313610023FB820DE0FB8A5B00BA685F
:102970001A44F98A7B8B0B441188264A22F81310DB
:10298000FB8A0133FB82FA8A3B8B9A42EDD3FB69C7
:1029900003F500339B024FF400721E491846FFF7FF
:1029A0005BFF09E04CF2503002F06AFC3B8B1A46A8
:1029B000B968F868FFF750FFFA883B8B9A421ED03F
:1029C000FB690133FB6100237B833B8B5B00BA68AF
:1029D0001344BB603B8B5B001A46FB681344FB60EF
:1029E000FA883B8BD31AFB80FB88B3F5007F03D9B1
:1029F0004FF400733B8380E7FB883B837DE700BF98
:102A000002F012FC00E000BF2037BD4680BD00BFD1
:102A1000FFFF0108980300200020024090B587B016
:102A200000AFF860B9601346FB800023FB820EE024
:102A3000FB8A5B00BA68D418F868FFF701FF034609
:102A40002380FB680233FB60FB8A0133FB82FA8A36
:102A5000FB889A42ECD300BF00BF1C37BD4690BD37
:102A600080B483B000AF78600B4B0022DA610B4B6F
:102A70001B690A4A43F002031361084A7B685361E9
:102A8000064B1B69054A43F04003136100BF0C3736
:102A9000BD4680BC704700BF780300200020024084
:102AA00080B500AF01F0E2FA0346074A136001F077
:102AB000E7FA0346044A536001F0ECFA0346024A7F
:102AC000936000BF80BD00BFA807002080B400AFA6
:102AD0000A4B1B6883F0C333094A1360074B5B68DA
:102AE00083F0C333064A5360044B9B6883F0C333BF
:102AF000034A936000BFBD4680BC7047A807002012
:102B0000B407002080B500AFFFF7CAFFFFF7DEFF74
:102B1000062221492148FFF781FF1F4B1B68B3F1B3
:102B2000FF3F24D11C4B5B68B3F1FF3F1FD11A4B11
:102B30009B68B3F1FF3F1AD1194B01221A70194B50
:102B40001B6883F0C333144A1360164B5B6883F031
:102B5000C333114A5360134B9B6883F0C3330E4A4F
:102B6000936006220C490D48FFF79EFE13E00E4BC2
:102B70001A68094B1B689A420CD10B4B5A68064BDA
:102B80005B689A4206D1084B9A68034B9B689A424D
:102B900000D100E0FEE780BD980700200008010892
:102BA000A4070020A8070020B407002080B584B047
:102BB00000AF0346FB800023FB60FB88B3F5007F7A
:102BC00040F0CA80664B1B78002B29D14FF400716E
:102BD000644802F06FFD0346012B04D1624B1B6871
:102BE000624A13604AE0604B1A68604B1B68D31A54
:102BF000252B0ED95C4B1A685C4B1B68D31A292B0A
:102C000007D8574B01221A70574B1B68574A13605D
:102C100034E0554B00221A60544B00221A602DE01C
:102C20004FF400714F4802F045FD0346012B21D1BE
:102C30004F4B1B780133DAB24D4B1A704D4B1B785A
:102C40005B00DAB24B4B1A70474B1A68474B1B6854
:102C5000D31A022B12D9444B1A68444B1B68D31A5F
:102C6000042B0BD8434B1B7843F00103DAB2414BE2
:102C70001A7003E03C4B1B683C4A13603C4B1B78CA
:102C8000072B69D13B4B1B785B00DAB2394B1A70CA
:102C9000394B1B781A46374B1978384B9954354BBA
:102CA0001B7803F00203002B04D0324B1B785BB27D
:102CB000002B0ADA2F4B1B785BB2002B16DB2D4B57
:102CC0001B7803F03003002B10D001F0A1F9F8605D
:102CD0002B4B1B68FA68D31AB3F5FA7F20D9294B1E
:102CE00001221A70264AFB68136019E0254B1B78F5
:102CF000012B0FD11F4B1A78204B1A701D4B1A78DD
:102D00001E4B5A701B4B1A781C4B9A70194B1A7831
:102D10001A4BDA7001F07CF9F860194AFB6813600D
:102D2000154B1B780133DAB2134B1A70124B1B7818
:102D3000032B02D9104B00221A700D4B00221A707F
:102D40000A4B00221A60084B00221A60044B002232
:102D50001A700D4B01221A7000BF1037BD4680BD9E
:102D6000C40700200010014078090020C00700209F
:102D7000C5070020C7070020CC070020C807002097
:102D8000D00700205A000020C607002080B588B078
:102D900000AF07F1100300221A605A609A60DA60EF
:102DA000664B9B69654A43F020039361634B9B69C3
:102DB00003F02003FB60FB68604B9B695F4A43F0B4
:102DC000100393615D4B9B6903F01003BB60BB680C
:102DD0005A4B9B69594A43F004039361574B9B69D3
:102DE00003F004037B607B68544B9B69534A43F0B8
:102DF00008039361514B9B6903F008033B603B68F8
:102E0000002241214E4802F06CFC002249F20811D8
:102E10004C4802F066FC002284214B4802F061FC21
:102E200001224FF4E051464802F05BFC01220421EC
:102E3000464802F056FC01221821434802F051FC9A
:102E400041233B6101237B610223BB610323FB61BF
:102E500007F1100319463A4802F0A8FA49F208139C
:102E60003B6101237B610223BB610323FB6107F10B
:102E700010031946334802F099FA04233B610123F9
:102E80007B610223BB610223FB6107F1100319463A
:102E90002D4802F08BFA4FF400733B612C4B7B61A1
:102EA0000123BB6107F110031946254802F07EFAA1
:102EB0004FF4E0533B6101237B610123BB6103239A
:102EC000FB6107F1100319461D4802F06FFA042355
:102ED0003B6101237B610123BB610323FB6107F19C
:102EE00010031946194802F061FA18233B610123C7
:102EF0007B610123BB610323FB6107F110031946CA
:102F0000114802F053FA80233B6101237B610223C5
:102F1000BB610323FB6107F1100319460A4802F065
:102F200045FA00220321172001F00FFE172001F0BF
:102F300028FE00BF2037BD4680BD00BF0010024004
:102F40000010014000080140000C01400014014045
:102F50000000311080B500AF094B0A4A1A60084BD7
:102F600006225A60064B4E229A60054802F0EAFBA0
:102F70000346002B01D000F07BF900BF80BD00BFED
:102F8000D40700200030004080B582B000AF00F0D0
:102F9000E7FF00F083F8FFF7F9FEFFF72BFC00F0E6
:102FA00091FC00F061FE00F089FE00F03FFCFFF7AD
:102FB000D1FF00F009FDFEF729FA00F0E7FB2E4BE8
:102FC0001B68DA682C4B1B6842F01002DA602B4B4E
:102FD0001B681A68294B1B6842F002021A60002322
:102FE0007B60254B1B681B687B60234B1B685B6801
:102FF0007B607B68224B1B68802219461E4804F0C8
:10300000EBFA204803F02EFA1F4803F02BFA1F4872
:1030100003F0B8F91E4803F0B5F900211B4803F08E
:10302000CBFA0421194803F0C7FA0821184803F025
:10303000C3FA0C21164803F0BFFAFFF763FDFEF751
:103040008DFAFEF7FDFCFEF799FAFEF7A3FB114B94
:103050001B68012B04D90F4B00221A60FEF74CFCB1
:10306000FEF780FEFFF7E0F8FFF784FAFFF70EFBAC
:10307000094802F0ABFBE6E7000B00208C0B0020B8
:103080006000002098090020E0090020280A0020A4
:10309000700A002080090020D407002080B594B079
:1030A00000AF07F1280328220021184606F041FA54
:1030B00007F1140300221A605A609A60DA601A61FC
:1030C0003B1D00221A605A609A60DA600923BB62D5
:1030D0004FF48033FB6200233B630123BB63012376
:1030E0003B6402237B644FF48033BB644FF4E013F2
:1030F000FB6407F12803184602F078FB0346002B17
:1031000001D000F0B5F80F237B610223BB610023DF
:10311000FB614FF480633B6200237B6207F1140381
:103120000221184602F0E4FD0346002B01D000F016
:103130009FF802237B604FF44043FB603B1D184621
:1031400002F064FF0346002B01D000F091F800BFAD
:103150005037BD4680BD000080B483B000AF7860BA
:103160007B681B68B3F1804F13D12F4B1B68013371
:103170002D4A13602D4B1B6801332C4A13602C4BD6
:103180001B6801332A4A13602A4B1B680133294A02
:1031900013607B681B68284A93423FD1274B1B680A
:1031A0000133264A1360264B1B680133244A1360FF
:1031B000244B1B680133234A1360234B1B680133E4
:1031C000214A1360214B1B680133204A13601E4BB8
:1031D0001B68962B02D91E4B01221A701D4B1B78BF
:1031E000012B04D11C4B1B6801331B4A13601B4B82
:1031F0001B78012B08D11A4B1B78052B04D8194BCF
:103200001B680133174A1360174B1B680133164ABA
:103210001360164B1B680133144A136000BF0C3750
:10322000BD4680BC704700BF78090020900900208F
:1032300094090020E0070020002C014084090020B0
:10324000880900208C090020E4070020600300208A
:10325000E8070020480300204C030020550300200D
:1032600026000020580300207C090020800900204F
:1032700080B400AF72B600BF00BFFDE780B500AFFD
:1032800000224FF48071164802F02BFA01224FF40D
:103290008051134802F025FA00228021114802F0E3
:1032A00020FA002208210E4802F01BFA0022012118
:1032B0000D4802F016FA00224FF40041084802F0CF
:1032C00010FA00224021084802F00BFA074B1B6855
:1032D00000225A63054B1B6800229A6300BF80BD21
:1032E00000080140000C014000100140280A0020A5
:1032F00080B584B000AF164B9B69154A43F00103BB
:103300009361134B9B6903F00103BB60BB68104BD7
:10331000DB690F4A43F08053D3610D4BDB6903F047
:1033200080537B607B68052001F004FC094B5B68DF
:10333000FB60FB6823F0E063FB60FB6843F0007315
:10334000FB60044AFB68536000BF1037BD4680BD78
:10335000001002400000014080B400AF00BFFDE754
:1033600080B400AF00BFFDE780B400AF00BFFDE751
:1033700080B400AF00BFFDE780B400AF00BFFDE741
:1033800080B400AF00BFBD4680BC704780B400AFC2
:1033900000BFBD4680BC704780B400AF00BFBD46D3
:1033A00080BC704780B500AF00F020FE00BF80BD3C
:1033B00080B500AF024801F06DFD00BF80BD00BFC9
:1033C000C802002080B582B000AF134B1B6803F425
:1033D0000053002B19D000237B60104B1B681B6827
:1033E0007B600E4B1B685B687B607B680C4B00222C
:1033F0001A700A4B202283F841200A4B012283F8DD
:103400002120084B002283F82020064801F042FDCD
:1034100000BF0837BD4680BD00000240000B002001
:103420006E0800208C0B002080B500AF024801F030
:1034300031FD00BF80BD00BF480B002080B500AF4C
:103440004FF4007002F066F900BF80BD80B500AF98
:10345000024803F0B7F900BF80BD00BF9809002003
:1034600080B500AF024803F0ADF900BF80BD00BFDA
:10347000E009002080B500AF024803F0A3F900BFC7
:1034800080BD00BF280A002080B500AF024803F0CD
:1034900099F900BF80BD00BF700A002080B500AF61
:1034A000024804F03DF900BF80BD00BFB80A00200B
:1034B00080B500AF2D4B1B681B6803F01003102B69
:1034C00047D12A4804F0ADF8294B1B685B68DAB293
:1034D0006FF07F039B1ADAB2264B1A70264B1B78CB
:1034E000002B09D0254B264A1A60264B264A1A6023
:1034F000214B00221A7008E0204B234A1A60214B0E
:103500001F4A1A601C4B01221A70204B1B78DBB239
:10351000002B17D1184B1B78002B08D1154B1B78AB
:10352000DBB21A4616491A4806F091F807E0114B2B
:103530001B78DBB21A461449154806F088F8134B7D
:1035400001221A700F4B1B6880220021184605F0DB
:10355000F0FF064804F0E4F80A4B1B688022194685
:10356000024804F039F800BF80BD00BF000B002006
:10357000480B00206C080020700900205C0000202F
:10358000F008002060000020700800206D08002076
:10359000EC07002080B582B000AF78600B467B80DE
:1035A00000F012F8064B01221A707B881A467968DF
:1035B000044803F0A1FF00BF0837BD4680BD00BF2F
:1035C0006E080020000B002080B483B000AF4FF4E1
:1035D000FA63FB8005E0FB88013BFB80FB88002B46
:1035E00005D0054B1B78DBB2002BF4D100E000BF07
:1035F0000C37BD4680BC70476E08002080B400AF19
:1036000001231846BD4680BC704780B582B000AF2C
:103610007860396005F0E0FF034616221A604FF02B
:10362000FF3318460837BD4680BD80B582B000AF75
:1036300078604FF0FF317868FFF7E7FF00BFFDE7E4
:1036400080B586B000AFF860B9607A6000237B6116
:103650000AE0AFF300800146BB685A1CBA60CAB2E8
:103660001A707B6901337B617A697B689A42F0DB6F
:103670007B6818461837BD4680BD80B586B000AF60
:10368000F860B9607A6000237B6109E0BB685A1C6E
:10369000BA601B78184600F02BFC7B6901337B6114
:1036A0007A697B689A42F1DB7B6818461837BD4619
:1036B00080BD80B483B000AF78604FF0FF33184610
:1036C0000C37BD4680BC704780B483B000AF7860D3
:1036D00039603B684FF400525A60002318460C379B
:1036E000BD4680BC704780B483B000AF78600123D2
:1036F00018460C37BD4680BC704780B485B000AF1B
:10370000F860B9607A60002318461437BD4680BC63
:103710007047000080B586B000AF7860144A154B42
:10372000D31A7B617B693B61134B1B68002B02D171
:10373000114B124A1A60104B1A687B6813443A699D
:103740009A4207D205F048FF03460C221A604FF058
:10375000FF3309E0084B1B68FB60074B1A687B6866
:103760001344054A1360FB6818461837BD4680BDF0
:10377000005000200004000074090020480D0020C3
:1037800080B400AF00BFBD4680BC704780B586B036
:1037900000AF07F1080300221A605A609A60DA60ED
:1037A0003B4600221A605A601E4B1F4A1A601D4B8E
:1037B00047225A601B4B00229A601A4B42F20F724A
:1037C000DA60184B00221A61164B00225A61154B21
:1037D00000229A61134802F085FD0346002B01D0B8
:1037E000FFF746FD4FF48053BB6007F1080319460D
:1037F0000C4803F099F90346002B01D0FFF738FD80
:1038000000233B6000237B603B461946054803F0DC
:1038100027FD0346002B01D0FFF72AFD00BF183714
:10382000BD4680BD98090020002C014080B586B0BF
:1038300000AF07F1080300221A605A609A60DA604C
:103840003B4600221A605A601D4B4FF080421A60BE
:103850001B4B47225A601A4B00229A60184B632276
:10386000DA60174B00221A61154B00229A61144846
:1038700002F038FD0346002B01D0FFF7F9FC4FF4AE
:103880008053BB6007F1080319460D4803F04CF95B
:103890000346002B01D0FFF7EBFC00233B60002325
:1038A0007B603B461946064803F0DAFC0346002BD2
:1038B00001D0FFF7DDFC00BF1837BD4680BD00BF5B
:1038C000E009002080B58EB000AF07F12803002288
:1038D0001A605A609A60DA6007F1200300221A60C9
:1038E0005A603B1D00221A605A609A60DA601A61C1
:1038F0005A619A61324B334A1A60314B47225A60FF
:103900002F4B00229A602E4B40F69F72DA602C4BB0
:1039100000221A612A4B00229A61294802F0E2FC37
:103920000346002B01D0FFF7A3FC4FF48053BB628A
:1039300007F128031946224803F0F6F80346002B46
:1039400001D0FFF795FC1E4802F0DEFD0346002B78
:1039500001D0FFF78DFC00233B6200237B6207F15F
:1039600020031946164803F07BFC0346002B01D0C8
:10397000FFF77EFC60237B600023BB600023FB60BD
:1039800000237B613B1D002219460D4803F00AF815
:103990000346002B01D0FFF76BFC3B1D04221946A8
:1039A000074802F0FFFF0346002B01D0FFF760FC41
:1039B000034800F003F900BF3837BD4680BD00BFA3
:1039C000280A00200004004080B58EB000AF07F147
:1039D000280300221A605A609A60DA6007F1200317
:1039E00000221A605A603B1D00221A605A609A60D9
:1039F000DA601A615A619A61324B334A1A60314B6C
:103A000047225A602F4B00229A602E4B40F6C41278
:103A1000DA602C4B00221A612A4B00229A61294855
:103A200002F060FC0346002B01D0FFF721FC4FF4AD
:103A30008053BB6207F128031946224803F074F84B
:103A40000346002B01D0FFF713FC1E4802F05CFD7B
:103A50000346002B01D0FFF70BFC00233B62002341
:103A60007B6207F120031946164803F0F9FB034671
:103A7000002B01D0FFF7FCFB60237B600023BB60C1
:103A80000023FB6004237B613B1D082219460D487F
:103A900002F088FF0346002B01D0FFF7E9FB3B1D36
:103AA0000C221946074802F07DFF0346002B01D087
:103AB000FFF7DEFB034800F081F800BF3837BD4652
:103AC00080BD00BF700A00200008004080B586B0AD
:103AD00000AF78607B681B68344A934214D1344B42
:103AE0009B69334A43F400639361314B9B6903F450
:103AF00000637B617B6900220321192001F025F816
:103B0000192001F03EF84CE07B681B68B3F1804F50
:103B100014D1274BDB69264A43F00103D361244BC0
:103B2000DB6903F001033B613B69002200211C209B
:103B300001F00BF81C2001F024F832E07B681B68D0
:103B40001C4A934214D11A4BDB69194A43F0020311
:103B5000D361174BDB6903F00203FB60FB680022B3
:103B600000211D2000F0F1FF1D2001F00AF818E0EF
:103B70007B681B68104A934213D10D4BDB690C4ADA
:103B800043F00403D3610A4BDB6903F00403BB6019
:103B9000BB68002200211E2000F0D7FF1E2000F08D
:103BA000F0FF00BF1837BD4680BD00BF002C0140AC
:103BB00000100240000400400008004080B588B0BA
:103BC00000AF786007F1100300221A605A609A6013
:103BD000DA607B681B681F4A934218D11E4B9B69B1
:103BE0001D4A43F0040393611B4B9B6903F00403DC
:103BF000FB60FB68C0233B6102237B610223FB6106
:103C000007F110031946154801F0D0FB1DE07B6851
:103C10001B68134A934218D10F4B9B690E4A43F01D
:103C2000080393610C4B9B6903F00803BB60BB68FE
:103C30004FF440733B6102237B610323FB6107F177
:103C400010031946074801F0B1FB00BF2037BD46FD
:103C500080BD00BF00040040001002400008014089
:103C600000080040000C014080B500AF114B124A23
:103C70001A60104B4FF4E1225A600E4B00229A60FA
:103C80000C4B0022DA600B4B00221A61094B0C220C
:103C90005A61084B00229A61064B0022DA610548FE
:103CA00003F04EFB0346002B01D0FFF7E1FA00BF03
:103CB00080BD00BFB80A00200038014080B500AFC9
:103CC000114B124A1A60104B4FF496425A600E4B39
:103CD00000229A600C4B0022DA600B4B00221A6122
:103CE000094B0C225A61084B00229A61064B0022B4
:103CF000DA61054803F024FB0346002B01D0FFF7EF
:103D0000B7FA00BF80BD00BF000B00200048004094
:103D100080B58AB000AF786007F1180300221A60FE
:103D20005A609A60DA607B681B68684A93423AD1AD
:103D3000674B9B69664A43F480439361644B9B697C
:103D400003F480437B617B69614B9B69604A43F06C
:103D5000040393615E4B9B6903F004033B613B6981
:103D60004FF40073BB610223FB6103237B6207F105
:103D700018031946574801F019FB4FF48063BB61E3
:103D80000023FB6100233B6207F1180319465148E9
:103D900001F00CFB00220021252000F0D6FE25209A
:103DA00000F0EFFE8DE07B681B684B4A934240F0C9
:103DB0008880474BDB69464A43F48023D361444BF8
:103DC000DB6903F48023FB60FB68414B9B69404A3D
:103DD00043F0080393613E4B9B6903F00803BB600B
:103DE000BB684FF48063BB610223FB6103237B62EA
:103DF00007F118031946394801F0D8FA4FF4006367
:103E0000BB610023FB6100233B6207F118031946E5
:103E1000324801F0CBFA324B324A1A60304B002262
:103E20005A602F4B00229A602D4B8022DA602C4B77
:103E300000221A612A4B00225A61294B00229A6102
:103E4000274B4FF40052DA61254800F0B5FE0346D7
:103E5000002B01D0FFF70CFA7B68214ADA63204A75
:103E60007B685362204B214A1A601F4B10225A6014
:103E70001D4B00229A601C4B8022DA601A4B0022F4
:103E80001A61194B00225A61174B00229A61164B96
:103E90004FF48052DA61144800F08EFE0346002B86
:103EA00001D0FFF7E5F97B680F4A9A630E4A7B68F9
:103EB000536202220021272000F047FE272000F055
:103EC00060FE00BF2837BD4680BD00BF00380140FE
:103ED000001002400008014000480040000C014072
:103EE000480B0020300002408C0B00201C000240D8
:103EF00080B582B000AF7860391D4FF0FF330122EA
:103F0000034803F06DFA7B6818460837BD4680BD4C
:103F1000B80A0020FFF734FC0B480C490C4A002378
:103F200002E0D458C4500433C4188C42F9D3094A6F
:103F3000094C002301E013600432A242FBD305F0D8
:103F400051FBFFF721F870470000002038020020E5
:103F500070D1000838020020440D0020FEE7000068
:103F600080B500AF084B1B68074A43F0100313608D
:103F7000032000F0DFFD002000F008F8FFF7B8F99B
:103F80000023184680BD00BF0020024080B582B0EB
:103F900000AF7860124B1A68124B1B7819464FF429
:103FA0007A73B3FBF1F3B2FBF3F3184600F0F7FDBD
:103FB0000346002B01D001230EE07B680F2B0AD8AB
:103FC000002279684FF0FF3000F0BFFD064A7B68A1
:103FD0001360002300E0012318460837BD4680BD6A
:103FE000640000206C0000206800002080B400AF56
:103FF000054B1B781A46054B1B681344034A136094
:1040000000BFBD4680BC70476C000020D00B002074
:1040100080B400AF024B1B681846BD4680BC704799
:10402000D00B002080B584B000AF7860FFF7F0FFC0
:10403000B8607B68FB60FB68B3F1FF3F05D00A4BBB
:104040001B781A46FB681344FB6000BFFFF7E0FFD4
:104050000246BB68D31AFA689A42F7D800BF00BF7D
:104060001037BD4680BD00BF6C00002080B400AF9B
:10407000024B1B681846BD4680BC7047E8F7FF1F1F
:1040800080B400AF024B1B681846BD4680BC704729
:10409000ECF7FF1F80B400AF024B1B681846BD460B
:1040A00080BC7047F0F7FF1F80B586B000AF786026
:1040B0000023FB7500233B610023BB600023FB60F2
:1040C0007B68002B01D10123BEE07B689B68002B3D
:1040D0007B689B6A002B09D17B680022DA627B68CF
:1040E000002283F824207868FDF7CEF9786800F084
:1040F000FFFA0346FB757B689B6A03F01003002BF5
:1041000040F09980FB7D002B40F095807B689B6A96
:1041100023F4885323F0020343F002027B689A627F
:104120007B685A687B68DB691A437B681B7B5B0092
:104130001343BA681343BB607B689B68B3F5807F09
:1041400003D07B689B68012B02D14FF4807300E0A1
:1041500000233A6913433B617B681B7D012B19D116
:104160007B681B7B002B09D17B689B69013B5A0351
:104170003B69134343F400633B610BE07B689B6A3C
:1041800043F020027B689A627B68DB6A43F001029D
:104190007B68DA627B681B685B6823F469417B6833
:1041A0001B683A690A435A607B681B689A68284B07
:1041B00013407A681268B9680B4393607B689B6808
:1041C000B3F5807F03D07B689B68012B04D17B68AB
:1041D0001B69013B1B05FB607B681B68DB6A23F4E2
:1041E00070017B681B68FA680A43DA627B681B68A7
:1041F0009A68184B1340BA689A420BD17B68002228
:10420000DA627B689B6A23F0030343F001027B6858
:104210009A6218E07B689B6A23F0120343F0100255
:104220007B689A627B68DB6A43F001027B68DA6232
:104230000123FB7507E07B689B6A43F010027B68F3
:104240009A620123FB75FB7D18461837BD4680BD79
:10425000FDF7E1FFFE0E1FFF80B586B000AFF860EE
:10426000B9607A600023FB75FB681B68644A93425F
:1042700004D0FB681B68634A934206D1604B5B68BD
:1042800003F47023002B40F0B380FB6893F82430D4
:10429000012B01D10223AEE0FB68012283F8242028
:1042A000F86800F0CBF90346FB75FB7D002B40F06E
:1042B0009A80FB689B6A23F4706323F0010343F444
:1042C0008072FB689A62FB681B684E4A934205D174
:1042D0004B4B5B6803F47023002B15D1FB689B6A82
:1042E00023F48012FB689A62FB681B685B6803F426
:1042F0008063002B26D0FB689B6A23F4405343F471
:104300008052FB689A621DE0FB689B6A43F480124E
:10431000FB689A62FB681B68394A934204D0FB68C9
:104320001B68384A93420DD1354B5B6803F48063B8
:10433000002B07D0FB689B6A23F4405343F4805260
:10434000FB689A62FB689B6A03F48053002B06D0DB
:10435000FB68DB6A23F00602FB68DA6202E0FB68B6
:104360000022DA62FB68002283F82420FB681B6AC3
:10437000254A9A62FB681B6A244ADA62FB681B6A58
:10438000234A1A63FB681B686FF002021A60FB681D
:104390001B689A68FB681B6842F480729A60FB682D
:1043A000186AFB681B684C331946BA687B6800F0D2
:1043B0005DFCFB681B689B6803F46023B3F5602F0A
:1043C00008D1FB681B689A68FB681B6842F4A0026E
:1043D0009A600FE0FB681B689A68FB681B6842F4F0
:1043E00080129A6006E0FB68002283F8242001E036
:1043F0000123FB75FB7D18461837BD4680BD00BF05
:10440000002401400028014073470008EF470008DE
:104410000B48000880B483B000AF786000BF0C3751
:10442000BD4680BC704780B483B000AF786000BFE9
:104430000C37BD4680BC704780B483B000AF786055
:1044400000BF0C37BD4680BC7047000080B485B00B
:1044500000AF786039600023FB730023BB607B688A
:1044600093F82430012B01D10223DCE07B68012288
:1044700083F824203B685B68062B1CD87B681B688C
:10448000596B3B685A6813469B001344053B1F2237
:1044900002FA03F3DB4319403B6818683B685A682B
:1044A00013469B001344053B00FA03F27B681B682C
:1044B0000A435A633CE03B685B680C2B1CD87B6862
:1044C0001B68196B3B685A6813469B001344233BD7
:1044D0001F2202FA03F3DB4319403B6818683B686C
:1044E0005A6813469B001344233B00FA03F27B688F
:1044F0001B680A431A631BE07B681B68D96A3B6828
:104500005A6813469B001344413B1F2202FA03F3EF
:10451000DB4319403B6818683B685A6813469B00A8
:104520001344413B00FA03F27B681B680A43DA62DA
:104530003B681B68092B1CD97B681B68D9683B68E2
:104540001A6813465B0013441E3B072202FA03F36A
:10455000DB4319403B6898683B681A6813465B0068
:1045600013441E3B00FA03F27B681B680A43DA60BF
:1045700019E07B681B6819693B681A6813465B0081
:104580001344072202FA03F3DB4319403B6898689F
:104590003B681A6813465B00134400FA03F27B6819
:1045A0001B680A431A613B681B68102B03D03B68E9
:1045B0001B68112B32D17B681B681D4A934225D1A1
:1045C0007B681B689B6803F40003002B26D17B6883
:1045D0001B689A687B681B6842F400029A603B681B
:1045E0001B68102B1AD1134B1B68134AA2FB032321
:1045F0009A0C13469B0013445B00BB6002E0BB684F
:10460000013BBB60BB68002BF9D107E07B689B6A6C
:1046100043F020027B689A620123FB737B680022CF
:1046200083F82420FB7B18461437BD4680BC7047B6
:10463000002401406400002083DE1B4380B584B069
:1046400000AF78600023FB600023BB607B681B68C1
:104650009B6803F00103012B40D07B681B689A68BC
:104660007B681B6842F001029A601F4B1B681F4A5F
:10467000A2FB03239B0CBB6002E0BB68013BBB6059
:10468000BB68002BF9D1FFF7C3FCF8601FE0FFF710
:10469000BFFC0246FB68D31A022B18D97B681B6843
:1046A0009B6803F00103012B11D07B689B6A43F0E8
:1046B00010027B689A627B68DB6A43F001027B68C8
:1046C000DA627B68002283F82420012307E07B68FC
:1046D0001B689B6803F00103012BD8D10023184607
:1046E0001037BD4680BD00BF6400002083DE1B4341
:1046F00080B584B000AF78600023FB607B681B68E6
:104700009B6803F00103012B2ED17B681B689A681C
:104710007B681B6822F001029A60FFF779FCF86061
:104720001BE0FFF775FC0246FB68D31A022B14D975
:104730007B681B689B6803F00103012B0DD17B682C
:104740009B6A43F010027B689A627B68DB6A43F0E5
:1047500001027B68DA62012307E07B681B689B68C3
:1047600003F00103012BDCD0002318461037BD46AF
:1047700080BD80B584B000AF78607B685B6AFB6009
:10478000FB689B6A03F05003002B27D1FB689B6AF0
:1047900043F40072FB689A62FB681B689B6803F431
:1047A0006023B3F5602F15D1FB681B7B002B11D163
:1047B000FB689B6A23F48072FB689A62FB689B6AC1
:1047C00003F48053002B05D1FB689B6A43F0010280
:1047D000FB689A62F868FFF71DFE04E0FB681B6A3D
:1047E0001B6B7868984700BF1037BD4680BD80B509
:1047F00084B000AF78607B685B6AFB60F868FFF7A5
:1048000012FE00BF1037BD4680BD80B584B000AF3A
:1048100078607B685B6AFB60FB689B6A43F04002E0
:10482000FB689A62FB68DB6A43F00402FB68DA62A9
:10483000F868FFF701FE00BF1037BD4680BD0000DD
:1048400090B587B000AF78600023FB750023FB6054
:104850007B6893F82430012B01D1022397E07B6819
:10486000012283F824207868FFF742FF0346FB7596
:104870007868FFF7E3FE0346FB75FB7D002B40F0F5
:1048800081807B689B6A23F4885323F0020343F002
:1048900002027B689A62404B1C68022001F06CFCAB
:1048A0000346B4FBF3F35B00FB6002E0FB68013BF3
:1048B000FB60FB68002BF9D17B681B689A687B68FA
:1048C0001B6842F008029A60FFF7A2FB38611BE008
:1048D000FFF79EFB02463B69D31A0A2B14D97B686B
:1048E0001B689B6803F00803002B0DD07B689B6A54
:1048F00023F0120343F010027B689A627B68002267
:1049000083F82420012342E07B681B689B6803F046
:104910000803002BDCD17B681B689A687B681B68E6
:1049200042F004029A60FFF773FB38611BE0FFF767
:104930006FFB02463B69D31A0A2B14D97B681B68AC
:104940009B6803F00403002B0DD07B689B6A23F067
:10495000120343F010027B689A627B68002283F89E
:104960002420012313E07B681B689B6803F0040389
:10497000002BDCD17B689B6A23F0030343F0010228
:104980007B689A627B68002283F82420FB7D1846AE
:104990001C37BD4690BD00BF6400002080B485B0C8
:1049A00000AF78607B6803F00703FB600C4BDB68AB
:1049B000BB60BA684FF6FF031340BB60FB681A0286
:1049C000BB68134343F0BF6343F40033BB60044A46
:1049D000BB68D36000BF1437BD4680BC704700BFC2
:1049E00000ED00E080B400AF044BDB681B0A03F06D
:1049F00007031846BD4680BC704700BF00ED00E0CD
:104A000080B483B000AF0346FB7197F90730002BE9
:104A10000BDBFB7903F01F02064997F907305B09AE
:104A2000012000FA02F241F8232000BF0C37BD46F6
:104A300080BC704700E100E080B483B000AF034663
:104A40003960FB7197F90730002B0ADB3B68DAB25B
:104A50000C4997F907301201D2B20B4483F80023B6
:104A60000AE03B68DAB20849FB7903F00F03043B24
:104A70001201D2B20B441A7600BF0C37BD4680BC7F
:104A8000704700BF00E100E000ED00E080B489B0B5
:104A900000AFF860B9607A60FB6803F00703FB6160
:104AA000FB69C3F10703042B28BF0423BB61FB6927
:104AB0000433062B02D9FB69033B00E000237B6132
:104AC0004FF0FF32BB6902FA03F3DA43BB681A40C6
:104AD0007B699A404FF0FF317B6901FA03F3D943B8
:104AE0007B680B40134318462437BD4680BC704793
:104AF00080B582B000AF78607B68013BB3F1807F06
:104B000001D301230FE00A4A7B68013B53600F2168
:104B10004FF0FF30FFF790FF054B00229A60044BE7
:104B200007221A60002318460837BD4680BD00BF23
:104B300010E000E080B582B000AF78607868FFF7E1
:104B40002DFF00BF0837BD4680BD80B586B000AFE1
:104B50000346B9607A60FB7300237B61FFF742FF75
:104B600078617A68B9687869FFF790FF024697F92B
:104B70000F3011461846FFF75FFF00BF1837BD46DC
:104B800080BD80B582B000AF0346FB7197F9073056
:104B90001846FFF735FF00BF0837BD4680BD80B51A
:104BA00082B000AF78607868FFF7A2FF034618462E
:104BB0000837BD4680BD000080B485B000AF786086
:104BC0000023FB607B68002B01D1012343E07B685D
:104BD0001B681A46224B1344224AA2FB03231B09DB
:104BE0009A007B681A647B681F4ADA637B6802223A
:104BF00083F821207B681B681B68FB60FB6823F43B
:104C00007F5323F03003FB607B685A687B689B68A6
:104C10001A437B68DB681A437B681B691A437B680D
:104C20005B691A437B689B691A437B68DB691343A2
:104C3000FA681343FB607B681B68FA681A607B683C
:104C400000229A637B68012283F821207B6800227E
:104C500083F82020002318461437BD4680BC7047D7
:104C6000F8FFFDBFCDCCCCCC0000024080B586B0B3
:104C700000AFF860B9607A603B600023FB75FB68A9
:104C800093F82030012B01D102234BE0FB68012275
:104C900083F82020FB6893F82130DBB2012B3AD156
:104CA000FB68022283F82120FB6800229A63FB68DC
:104CB0001B681A68FB681B6822F001021A603B68D7
:104CC0007A68B968F86800F0EBF9FB68DB6A002BDA
:104CD00008D0FB681B681A68FB681B6842F00E026C
:104CE0001A600FE0FB681B681A68FB681B6822F0FB
:104CF00004021A60FB681B681A68FB681B6842F0B4
:104D00000A021A60FB681B681A68FB681B6842F09D
:104D100001021A6005E0FB68002283F820200223CC
:104D2000FB75FB7D18461837BD4680BD80B485B045
:104D300000AF78600023FB737B6893F82130DBB20F
:104D4000022B08D07B6804229A637B68002283F8D8
:104D50002020012320E07B681B681A687B681B68A1
:104D600022F00E021A607B681B681A687B681B6859
:104D700022F001021A607B681A6C7B68DB6B0121F0
:104D800001FA02F25A607B68012283F821207B68D5
:104D9000002283F82020FB7B18461437BD4680BCD8
:104DA0007047000080B584B000AF78600023FB73CB
:104DB0007B6893F82130DBB2022B05D07B6804229C
:104DC0009A630123FB7351E07B681B681A687B6858
:104DD0001B6822F00E021A607B681B681A687B68E9
:104DE0001B6822F001021A607B681B68224A93420A
:104DF00029D07B681B68214A934222D07B681B68BC
:104E00001F4A93421AD07B681B681E4A934212D0F5
:104E10007B681B681C4A93420AD07B681B681B4A4C
:104E2000934202D14FF480130EE04FF080730BE0F9
:104E30004FF4803308E04FF4805305E04FF4807363
:104E400002E0102300E00123114A53607B68012235
:104E500083F821207B68002283F820207B685B6B2D
:104E6000002B03D07B685B6B78689847FB7B184608
:104E70001037BD4680BD00BF080002401C00024044
:104E80003000024044000240580002406C000240E2
:104E90000000024080B584B000AF78607B68DB6BB7
:104EA0001B68FB607B681B681B68BB607B681B6CB6
:104EB00004229A40FB681340002B4FD0BB6803F0DC
:104EC0000403002B4AD07B681B681B6803F0200397
:104ED000002B07D17B681B681A687B681B6822F06F
:104EE00004021A607B681B68664A934229D07B687B
:104EF0001B68654A934222D07B681B68634A9342D1
:104F00001AD07B681B68624A934212D07B681B6888
:104F1000604A93420AD07B681B685F4A934202D181
:104F20004FF480030EE04FF080630BE04FF48023DA
:104F300008E04FF4804305E04FF4806302E0402333
:104F400000E00423554A53607B68DB6A002B00F0C5
:104F500094807B68DB6A786898478EE07B681B6C7E
:104F600002229A40FB681340002B56D0BB6803F026
:104F70000203002B51D07B681B681B6803F02003E1
:104F8000002B0BD17B681B681A687B681B6822F0BA
:104F90000A021A607B68012283F821207B681B6863
:104FA000384A934229D07B681B68374A934222D003
:104FB0007B681B68354A93421AD07B681B68344A69
:104FC000934212D07B681B68324A93420AD07B68B6
:104FD0001B68314A934202D14FF400130EE04FF0A8
:104FE00000730BE04FF4003308E04FF4005305E08A
:104FF0004FF4007302E0202300E00223274A5360AD
:105000007B68002283F820207B689B6A002B34D0C9
:105010007B689B6A786898472FE07B681B6C082246
:105020009A40FB681340002B28D0BB6803F00803AC
:10503000002B23D07B681B681A687B681B6822F0F2
:105040000E021A607B681A6C7B68DB6B012101FA27
:1050500002F25A607B6801229A637B68012283F81E
:1050600021207B68002283F820207B681B6B002BAB
:1050700004D07B681B6B7868984700BF00BF10376F
:10508000BD4680BD080002401C00024030000240C6
:1050900044000240580002406C0002400000024000
:1050A00080B485B000AFF860B9607A603B60FB689F
:1050B0001A6CFB68DB6B012101FA02F25A60FB6893
:1050C0001B683A685A60FB685B68102B08D1FB6864
:1050D0001B687A689A60FB681B68BA68DA6007E048
:1050E000FB681B68BA689A60FB681B687A68DA60BC
:1050F00000BF1437BD4680BC70470000F0B587B0D4
:1051000000AFF860B960C7E900230123FB750023F5
:10511000BB7500237B752F4B1B7E012B01D1022316
:1051200054E02C4B01221A764CF2503000F0A8F8D3
:105130000346FB75FB7D002B44D1FB68012B02D19C
:1051400001237B7507E0FB68022B02D102237B75EC
:1051500001E004237B750023BB752DE0BB7D5A0065
:10516000BB6802EB030CBB7D1901D7E90023C1F139
:105170002006A1F1200022FA01F403FA06F63443D6
:1051800023FA00F0044323FA01F5A3B2194660465E
:1051900000F05AF84CF2503000F072F80346FB75FC
:1051A0000D4B1B690C4A23F001031361FB7D002B9F
:1051B00007D1BB7D0133BB75BA7D7B7D9A42CDD3D0
:1051C00000E000BF034B00221A76FB7D18461C3717
:1051D000BD46F0BDD80B00200020024080B483B053
:1051E00000AF0023FB710D4B1B6903F08003002B04
:1051F0000DD00A4B0A4A5A60084B0A4A5A60074BBC
:105200001B6903F08003002B01D00123FB71FB79A4
:1052100018460C37BD4680BC704700BF00200240D6
:1052200023016745AB89EFCD80B400AF054B1B6907
:10523000044A43F08003136100231846BD4680BC36
:10524000704700BF0020024080B483B000AF786098
:105250000B467B80084B0022DA61084B1B69074A2A
:1052600043F0010313617B687A881A8000BF0C3712
:10527000BD4680BC704700BFD80B00200020024014
:1052800080B584B000AF7860FEF7C2FEF86010E031
:105290007B68B3F1FF3F0CD07B68002B07D0FEF793
:1052A000B7FE0246FB68D31A7A689A4201D20323FA
:1052B00025E0154BDB6803F00103002BE8D1124B0E
:1052C000DB6803F02003002B02D00F4B2022DA60B2
:1052D0000D4BDB6803F01003002B0BD10A4BDB698D
:1052E00003F00103002B05D1074BDB6803F0040337
:1052F000002B03D000F00AF8012300E00023184639
:105300001037BD4680BD00BF0020024080B483B08E
:1053100000AF00237B60234BDB6803F01003002BFE
:1053200009D0214BDB6943F002031F4AD3617B683C
:1053300043F010037B601B4BDB6803F00403002B7E
:1053400009D0194BDB6943F00103174AD3617B682D
:1053500043F004037B60134BDB6903F00103002B74
:105360000BD0114BDB6943F004030F4AD3610D4BA3
:10537000DB690C4A23F00103D3617B6840F2011220
:10538000934206D1074BDB69064A23F00103D36140
:1053900002E0044A7B68D36000BF0C37BD4680BC86
:1053A000704700BF00200240D80B002080B48BB0B3
:1053B00000AF7860396000237B6200233B6269E1C3
:1053C00001227B6A02FA03F3FB613B681B68FA69FE
:1053D0001340BB61BA69FB699A4240F058813B684F
:1053E0005B689A4A93425ED0984A934275D8984A2D
:1053F000934258D0964A93426FD8964A934252D0DD
:10540000944A934269D8944A93424CD0924A934228
:1054100063D8924A934246D0904A93425DD8122B69
:105420002AD8122B59D801A252F823F0A754000809
:105430008154000893540008D5540008DB54000838
:10544000DB540008DB540008DB540008DB54000880
:10545000DB540008DB540008DB540008DB54000870
:10546000DB540008DB540008DB540008DB54000860
:10547000895400089D540008794A934213D02CE0C7
:105480003B68DB683B6229E03B68DB6804333B62D6
:1054900024E03B68DB6808333B621FE03B68DB6865
:1054A0000C333B621AE03B689B68002B02D104235B
:1054B0003B6213E03B689B68012B05D108233B62EC
:1054C0007B68FA691A6109E008233B627B68FA6924
:1054D0005A6103E000233B6200E000BFBB69FF2B81
:1054E00001D87B6801E07B6804337B61BB69FF2BDB
:1054F00002D87B6A9B0002E07B6A083B9B003B6111
:105500007B691A680F213B6901FA03F3DB431A40F8
:10551000396A3B6901FA03F31A437B691A603B68F5
:105520005B6803F08053002B00F0B1804D4B9B690A
:105530004C4A43F0010393614A4B9B6903F001031A
:10554000BB60BB68484A7B6A9B08023352F8233031
:10555000FB607B6A03F003039B000F2202FA03F354
:10556000DB43FA681340FB607B68404A934213D0E8
:105570007B683F4A93420DD07B683E4A934207D0F6
:105580007B683D4A934201D1032306E0042304E0F3
:10559000022302E0012300E000237A6A02F0030202
:1055A00092009340FA681343FB602F497B6A9B0883
:1055B0000233FA6841F823203B685B6803F48013E8
:1055C000002B06D02D4B9A682C49BB6913438B6086
:1055D00006E02A4B9A68BB69DB43284913408B607D
:1055E0003B685B6803F40013002B06D0234BDA689A
:1055F0002249BB691343CB6006E0204BDA68BB69E4
:10560000DB431E491340CB603B685B6803F4003307
:10561000002B06D0194B5A681849BB6913434B60DD
:1056200006E0164B5A68BB69DB43144913404B60D4
:105630003B685B6803F48033002B21D00F4B1A6862
:105640000E49BB6913430B6021E000BF000032101C
:105650000000311000002210000021100000121084
:10566000000011100010024000000140000801403D
:10567000000C0140001001400014014000040140F2
:105680000B4B1A68BB69DB43094913400B607B6A0B
:1056900001337B623B681A687B6A22FA03F3002BB2
:1056A0007FF48EAE00BF00BF2C37BD4680BC704774
:1056B0000004014080B485B000AF78600B467B8069
:1056C0007B689A687B881340002B02D00123FB7310
:1056D00001E00023FB73FB7B18461437BD4680BCFA
:1056E000704780B483B000AF78600B467B80134670
:1056F0007B707B78002B03D07A887B681A6103E08B
:105700007B881A047B681A6100BF0C37BD4680BCD9
:105710007047000080B582B000AF0346FB80084BA5
:105720005A69FB881340002B06D0054AFB88536159
:10573000FB881846FDF73AFA00BF0837BD4680BD22
:105740000004014080B584B000AF78607B68002B16
:1057500001D1012336E07B681B684CF6CC421A600D
:105760007B681B6845F255521A607B681B687A6833
:1057700052685A607B681B687A6892689A60FEF784
:1057800047FCF86011E0FEF743FC0246FB68D31AC1
:1057900041F23C32934208D97B681B68DB6803F016
:1057A0000303002B01D003230CE07B681B68DB683C
:1057B00003F00303002BE6D17B681B684AF6AA229C
:1057C0001A60002318461037BD4680BD80B483B0F0
:1057D00000AF78607B681B684AF6AA221A60002333
:1057E00018460C37BD4680BC7047000080B586B0B7
:1057F00000AF78607B68002B01D1012372E27B68E7
:105800001B6803F00103002B00F08780924B5B685C
:1058100003F00C03042B0CD08F4B5B6803F00C03DC
:10582000082B12D18C4B5B6803F48033B3F5803FB7
:105830000BD1894B1B6803F40033002B6CD07B68C1
:105840005B68002B68D101234CE27B685B68B3F591
:10585000803F06D1804B1B687F4A43F4803313603E
:105860002EE07B685B68002B0CD17B4B1B687A4A6F
:1058700023F480331360784B1B68774A23F480232A
:1058800013601DE07B685B68B3F5A02F0CD1724BF1
:105890001B68714A43F4802313606F4B1B686E4A88
:1058A00043F4803313600BE06B4B1B686A4A23F4AC
:1058B00080331360684B1B68674A23F480231360AE
:1058C0007B685B68002B13D0FEF7A2FB386108E011
:1058D000FEF79EFB02463B69D31A642B01D90323D2
:1058E00000E25D4B1B6803F40033002BF0D014E0A2
:1058F000FEF78EFB386108E0FEF78AFB02463B6943
:10590000D31A642B01D90323ECE1534B1B6803F436
:105910000033002BF0D100E000BF7B681B6803F070
:105920000203002B63D04C4B5B6803F00C03002B8D
:105930000BD0494B5B6803F00C03082B1CD1464B82
:105940005B6803F48033002B16D1434B1B6803F0D4
:105950000203002B05D07B681B69012B01D00123BA
:10596000C0E13D4B1B6823F0F8027B685B69DB00FC
:10597000394913430B603AE07B681B69002B20D048
:10598000364B01221A60FEF743FB386108E0FEF750
:105990003FFB02463B69D31A022B01D90323A1E145
:1059A0002D4B1B6803F00203002BF0D02A4B1B6821
:1059B00023F0F8027B685B69DB00274913430B6027
:1059C00015E0264B00221A60FEF722FB386108E042
:1059D000FEF71EFB02463B69D31A022B01D90323B3
:1059E00080E11D4B1B6803F00203002BF0D17B68A4
:1059F0001B6803F00803002B3AD07B689B69002BDF
:105A000019D0174B01221A60FEF702FB386108E03B
:105A1000FEF7FEFA02463B69D31A022B01D9032393
:105A200060E10D4B5B6A03F00203002BF0D0012014
:105A300000F0CEFA1CE00A4B00221A60FEF7E8FAEA
:105A400038610FE0FEF7E4FA02463B69D31A022BF5
:105A500008D9032346E100BF001002400000424283
:105A600080044242924B5B6A03F00203002BE9D1AF
:105A70007B681B6803F00403002B00F0A680002362
:105A8000FB758B4BDB6903F08053002B0DD1884BEA
:105A9000DB69874A43F08053D361854BDB6903F0B0
:105AA0008053BB60BB680123FB75824B1B6803F40A
:105AB0008073002B18D17F4B1B687E4A43F48073A0
:105AC0001360FEF7A5FA386108E0FEF7A1FA024676
:105AD0003B69D31A642B01D9032303E1754B1B687F
